{
  "_format": "hh-sol-artifact-1",
  "contractName": "Bonbon",
  "sourceName": "contracts/Bonbon.sol",
  "abi": [
    {
      "inputs": [
        {
          "internalType": "string",
          "name": "name",
          "type": "string"
        },
        {
          "internalType": "string",
          "name": "symbol",
          "type": "string"
        },
        {
          "internalType": "uint256",
          "name": "initMaxSupply",
          "type": "uint256"
        }
      ],
      "stateMutability": "nonpayable",
      "type": "constructor"
    },
    {
      "inputs": [],
      "name": "AccessControlBadConfirmation",
      "type": "error"
    },
    {
      "inputs": [
        {
          "internalType": "address",
          "name": "account",
          "type": "address"
        },
        {
          "internalType": "bytes32",
          "name": "neededRole",
          "type": "bytes32"
        }
      ],
      "name": "AccessControlUnauthorizedAccount",
      "type": "error"
    },
    {
      "inputs": [],
      "name": "ApprovalCallerNotOwnerNorApproved",
      "type": "error"
    },
    {
      "inputs": [],
      "name": "ApprovalQueryForNonexistentToken",
      "type": "error"
    },
    {
      "inputs": [],
      "name": "BalanceQueryForZeroAddress",
      "type": "error"
    },
    {
      "inputs": [
        {
          "internalType": "uint256",
          "name": "numerator",
          "type": "uint256"
        },
        {
          "internalType": "uint256",
          "name": "denominator",
          "type": "uint256"
        }
      ],
      "name": "ERC2981InvalidDefaultRoyalty",
      "type": "error"
    },
    {
      "inputs": [
        {
          "internalType": "address",
          "name": "receiver",
          "type": "address"
        }
      ],
      "name": "ERC2981InvalidDefaultRoyaltyReceiver",
      "type": "error"
    },
    {
      "inputs": [
        {
          "internalType": "uint256",
          "name": "tokenId",
          "type": "uint256"
        },
        {
          "internalType": "uint256",
          "name": "numerator",
          "type": "uint256"
        },
        {
          "internalType": "uint256",
          "name": "denominator",
          "type": "uint256"
        }
      ],
      "name": "ERC2981InvalidTokenRoyalty",
      "type": "error"
    },
    {
      "inputs": [
        {
          "internalType": "uint256",
          "name": "tokenId",
          "type": "uint256"
        },
        {
          "internalType": "address",
          "name": "receiver",
          "type": "address"
        }
      ],
      "name": "ERC2981InvalidTokenRoyaltyReceiver",
      "type": "error"
    },
    {
      "inputs": [],
      "name": "MintERC2309QuantityExceedsLimit",
      "type": "error"
    },
    {
      "inputs": [],
      "name": "MintToZeroAddress",
      "type": "error"
    },
    {
      "inputs": [],
      "name": "MintZeroQuantity",
      "type": "error"
    },
    {
      "inputs": [],
      "name": "NotCompatibleWithSpotMints",
      "type": "error"
    },
    {
      "inputs": [
        {
          "internalType": "address",
          "name": "owner",
          "type": "address"
        }
      ],
      "name": "OwnableInvalidOwner",
      "type": "error"
    },
    {
      "inputs": [
        {
          "internalType": "address",
          "name": "account",
          "type": "address"
        }
      ],
      "name": "OwnableUnauthorizedAccount",
      "type": "error"
    },
    {
      "inputs": [],
      "name": "OwnerQueryForNonexistentToken",
      "type": "error"
    },
    {
      "inputs": [],
      "name": "OwnershipNotInitializedForExtraData",
      "type": "error"
    },
    {
      "inputs": [],
      "name": "SequentialMintExceedsLimit",
      "type": "error"
    },
    {
      "inputs": [],
      "name": "SequentialUpToTooSmall",
      "type": "error"
    },
    {
      "inputs": [],
      "name": "SpotMintTokenIdTooSmall",
      "type": "error"
    },
    {
      "inputs": [],
      "name": "TokenAlreadyExists",
      "type": "error"
    },
    {
      "inputs": [],
      "name": "TransferCallerNotOwnerNorApproved",
      "type": "error"
    },
    {
      "inputs": [],
      "name": "TransferFromIncorrectOwner",
      "type": "error"
    },
    {
      "inputs": [],
      "name": "TransferToNonERC721ReceiverImplementer",
      "type": "error"
    },
    {
      "inputs": [],
      "name": "TransferToZeroAddress",
      "type": "error"
    },
    {
      "inputs": [],
      "name": "URIQueryForNonexistentToken",
      "type": "error"
    },
    {
      "anonymous": false,
      "inputs": [
        {
          "indexed": true,
          "internalType": "address",
          "name": "owner",
          "type": "address"
        },
        {
          "indexed": true,
          "internalType": "address",
          "name": "approved",
          "type": "address"
        },
        {
          "indexed": true,
          "internalType": "uint256",
          "name": "tokenId",
          "type": "uint256"
        }
      ],
      "name": "Approval",
      "type": "event"
    },
    {
      "anonymous": false,
      "inputs": [
        {
          "indexed": true,
          "internalType": "address",
          "name": "owner",
          "type": "address"
        },
        {
          "indexed": true,
          "internalType": "address",
          "name": "operator",
          "type": "address"
        },
        {
          "indexed": false,
          "internalType": "bool",
          "name": "approved",
          "type": "bool"
        }
      ],
      "name": "ApprovalForAll",
      "type": "event"
    },
    {
      "anonymous": false,
      "inputs": [
        {
          "indexed": true,
          "internalType": "uint256",
          "name": "fromTokenId",
          "type": "uint256"
        },
        {
          "indexed": false,
          "internalType": "uint256",
          "name": "toTokenId",
          "type": "uint256"
        },
        {
          "indexed": true,
          "internalType": "address",
          "name": "from",
          "type": "address"
        },
        {
          "indexed": true,
          "internalType": "address",
          "name": "to",
          "type": "address"
        }
      ],
      "name": "ConsecutiveTransfer",
      "type": "event"
    },
    {
      "anonymous": false,
      "inputs": [
        {
          "indexed": true,
          "internalType": "address",
          "name": "previousOwner",
          "type": "address"
        },
        {
          "indexed": true,
          "internalType": "address",
          "name": "newOwner",
          "type": "address"
        }
      ],
      "name": "OwnershipTransferred",
      "type": "event"
    },
    {
      "anonymous": false,
      "inputs": [
        {
          "indexed": true,
          "internalType": "bytes32",
          "name": "role",
          "type": "bytes32"
        },
        {
          "indexed": true,
          "internalType": "bytes32",
          "name": "previousAdminRole",
          "type": "bytes32"
        },
        {
          "indexed": true,
          "internalType": "bytes32",
          "name": "newAdminRole",
          "type": "bytes32"
        }
      ],
      "name": "RoleAdminChanged",
      "type": "event"
    },
    {
      "anonymous": false,
      "inputs": [
        {
          "indexed": true,
          "internalType": "bytes32",
          "name": "role",
          "type": "bytes32"
        },
        {
          "indexed": true,
          "internalType": "address",
          "name": "account",
          "type": "address"
        },
        {
          "indexed": true,
          "internalType": "address",
          "name": "sender",
          "type": "address"
        }
      ],
      "name": "RoleGranted",
      "type": "event"
    },
    {
      "anonymous": false,
      "inputs": [
        {
          "indexed": true,
          "internalType": "bytes32",
          "name": "role",
          "type": "bytes32"
        },
        {
          "indexed": true,
          "internalType": "address",
          "name": "account",
          "type": "address"
        },
        {
          "indexed": true,
          "internalType": "address",
          "name": "sender",
          "type": "address"
        }
      ],
      "name": "RoleRevoked",
      "type": "event"
    },
    {
      "anonymous": false,
      "inputs": [
        {
          "indexed": true,
          "internalType": "address",
          "name": "from",
          "type": "address"
        },
        {
          "indexed": true,
          "internalType": "address",
          "name": "to",
          "type": "address"
        },
        {
          "indexed": true,
          "internalType": "uint256",
          "name": "tokenId",
          "type": "uint256"
        }
      ],
      "name": "Transfer",
      "type": "event"
    },
    {
      "inputs": [],
      "name": "DEFAULT_ADMIN_ROLE",
      "outputs": [
        {
          "internalType": "bytes32",
          "name": "",
          "type": "bytes32"
        }
      ],
      "stateMutability": "view",
      "type": "function"
    },
    {
      "inputs": [],
      "name": "MINTER_ROLE",
      "outputs": [
        {
          "internalType": "bytes32",
          "name": "",
          "type": "bytes32"
        }
      ],
      "stateMutability": "view",
      "type": "function"
    },
    {
      "inputs": [
        {
          "internalType": "address",
          "name": "to",
          "type": "address"
        },
        {
          "internalType": "uint256",
          "name": "tokenId",
          "type": "uint256"
        }
      ],
      "name": "approve",
      "outputs": [],
      "stateMutability": "payable",
      "type": "function"
    },
    {
      "inputs": [
        {
          "internalType": "address",
          "name": "owner",
          "type": "address"
        }
      ],
      "name": "balanceOf",
      "outputs": [
        {
          "internalType": "uint256",
          "name": "",
          "type": "uint256"
        }
      ],
      "stateMutability": "view",
      "type": "function"
    },
    {
      "inputs": [],
      "name": "baseContractURI",
      "outputs": [
        {
          "internalType": "string",
          "name": "",
          "type": "string"
        }
      ],
      "stateMutability": "view",
      "type": "function"
    },
    {
      "inputs": [],
      "name": "baseExtension",
      "outputs": [
        {
          "internalType": "string",
          "name": "",
          "type": "string"
        }
      ],
      "stateMutability": "view",
      "type": "function"
    },
    {
      "inputs": [],
      "name": "baseURI",
      "outputs": [
        {
          "internalType": "string",
          "name": "",
          "type": "string"
        }
      ],
      "stateMutability": "view",
      "type": "function"
    },
    {
      "inputs": [],
      "name": "contractURI",
      "outputs": [
        {
          "internalType": "string",
          "name": "",
          "type": "string"
        }
      ],
      "stateMutability": "view",
      "type": "function"
    },
    {
      "inputs": [
        {
          "internalType": "uint256",
          "name": "tokenId",
          "type": "uint256"
        }
      ],
      "name": "getApproved",
      "outputs": [
        {
          "internalType": "address",
          "name": "",
          "type": "address"
        }
      ],
      "stateMutability": "view",
      "type": "function"
    },
    {
      "inputs": [
        {
          "internalType": "bytes32",
          "name": "role",
          "type": "bytes32"
        }
      ],
      "name": "getRoleAdmin",
      "outputs": [
        {
          "internalType": "bytes32",
          "name": "",
          "type": "bytes32"
        }
      ],
      "stateMutability": "view",
      "type": "function"
    },
    {
      "inputs": [
        {
          "internalType": "bytes32",
          "name": "role",
          "type": "bytes32"
        },
        {
          "internalType": "address",
          "name": "account",
          "type": "address"
        }
      ],
      "name": "grantRole",
      "outputs": [],
      "stateMutability": "nonpayable",
      "type": "function"
    },
    {
      "inputs": [
        {
          "internalType": "bytes32",
          "name": "role",
          "type": "bytes32"
        },
        {
          "internalType": "address",
          "name": "account",
          "type": "address"
        }
      ],
      "name": "hasRole",
      "outputs": [
        {
          "internalType": "bool",
          "name": "",
          "type": "bool"
        }
      ],
      "stateMutability": "view",
      "type": "function"
    },
    {
      "inputs": [
        {
          "internalType": "address",
          "name": "owner",
          "type": "address"
        },
        {
          "internalType": "address",
          "name": "operator",
          "type": "address"
        }
      ],
      "name": "isApprovedForAll",
      "outputs": [
        {
          "internalType": "bool",
          "name": "",
          "type": "bool"
        }
      ],
      "stateMutability": "view",
      "type": "function"
    },
    {
      "inputs": [],
      "name": "locked",
      "outputs": [
        {
          "internalType": "bool",
          "name": "",
          "type": "bool"
        }
      ],
      "stateMutability": "view",
      "type": "function"
    },
    {
      "inputs": [],
      "name": "maxSupply",
      "outputs": [
        {
          "internalType": "uint256",
          "name": "",
          "type": "uint256"
        }
      ],
      "stateMutability": "view",
      "type": "function"
    },
    {
      "inputs": [
        {
          "internalType": "address",
          "name": "to",
          "type": "address"
        },
        {
          "internalType": "uint256",
          "name": "amount",
          "type": "uint256"
        }
      ],
      "name": "mint",
      "outputs": [],
      "stateMutability": "nonpayable",
      "type": "function"
    },
    {
      "inputs": [],
      "name": "mintLimit",
      "outputs": [
        {
          "internalType": "uint256",
          "name": "",
          "type": "uint256"
        }
      ],
      "stateMutability": "view",
      "type": "function"
    },
    {
      "inputs": [],
      "name": "name",
      "outputs": [
        {
          "internalType": "string",
          "name": "",
          "type": "string"
        }
      ],
      "stateMutability": "view",
      "type": "function"
    },
    {
      "inputs": [],
      "name": "owner",
      "outputs": [
        {
          "internalType": "address",
          "name": "",
          "type": "address"
        }
      ],
      "stateMutability": "view",
      "type": "function"
    },
    {
      "inputs": [
        {
          "internalType": "uint256",
          "name": "tokenId",
          "type": "uint256"
        }
      ],
      "name": "ownerOf",
      "outputs": [
        {
          "internalType": "address",
          "name": "",
          "type": "address"
        }
      ],
      "stateMutability": "view",
      "type": "function"
    },
    {
      "inputs": [],
      "name": "paused",
      "outputs": [
        {
          "internalType": "bool",
          "name": "",
          "type": "bool"
        }
      ],
      "stateMutability": "view",
      "type": "function"
    },
    {
      "inputs": [],
      "name": "renounceOwnership",
      "outputs": [],
      "stateMutability": "nonpayable",
      "type": "function"
    },
    {
      "inputs": [
        {
          "internalType": "bytes32",
          "name": "role",
          "type": "bytes32"
        },
        {
          "internalType": "address",
          "name": "callerConfirmation",
          "type": "address"
        }
      ],
      "name": "renounceRole",
      "outputs": [],
      "stateMutability": "nonpayable",
      "type": "function"
    },
    {
      "inputs": [
        {
          "internalType": "bytes32",
          "name": "role",
          "type": "bytes32"
        },
        {
          "internalType": "address",
          "name": "account",
          "type": "address"
        }
      ],
      "name": "revokeRole",
      "outputs": [],
      "stateMutability": "nonpayable",
      "type": "function"
    },
    {
      "inputs": [
        {
          "internalType": "uint256",
          "name": "tokenId",
          "type": "uint256"
        },
        {
          "internalType": "uint256",
          "name": "salePrice",
          "type": "uint256"
        }
      ],
      "name": "royaltyInfo",
      "outputs": [
        {
          "internalType": "address",
          "name": "",
          "type": "address"
        },
        {
          "internalType": "uint256",
          "name": "",
          "type": "uint256"
        }
      ],
      "stateMutability": "view",
      "type": "function"
    },
    {
      "inputs": [
        {
          "internalType": "address",
          "name": "from",
          "type": "address"
        },
        {
          "internalType": "address",
          "name": "to",
          "type": "address"
        },
        {
          "internalType": "uint256",
          "name": "tokenId",
          "type": "uint256"
        }
      ],
      "name": "safeTransferFrom",
      "outputs": [],
      "stateMutability": "payable",
      "type": "function"
    },
    {
      "inputs": [
        {
          "internalType": "address",
          "name": "from",
          "type": "address"
        },
        {
          "internalType": "address",
          "name": "to",
          "type": "address"
        },
        {
          "internalType": "uint256",
          "name": "tokenId",
          "type": "uint256"
        },
        {
          "internalType": "bytes",
          "name": "_data",
          "type": "bytes"
        }
      ],
      "name": "safeTransferFrom",
      "outputs": [],
      "stateMutability": "payable",
      "type": "function"
    },
    {
      "inputs": [
        {
          "internalType": "address",
          "name": "operator",
          "type": "address"
        },
        {
          "internalType": "bool",
          "name": "approved",
          "type": "bool"
        }
      ],
      "name": "setApprovalForAll",
      "outputs": [],
      "stateMutability": "nonpayable",
      "type": "function"
    },
    {
      "inputs": [
        {
          "internalType": "string",
          "name": "_newBaseExtension",
          "type": "string"
        }
      ],
      "name": "setBaseExtension",
      "outputs": [],
      "stateMutability": "nonpayable",
      "type": "function"
    },
    {
      "inputs": [
        {
          "internalType": "string",
          "name": "_newBaseURI",
          "type": "string"
        }
      ],
      "name": "setBaseURI",
      "outputs": [],
      "stateMutability": "nonpayable",
      "type": "function"
    },
    {
      "inputs": [
        {
          "internalType": "string",
          "name": "_newBaseContractURI",
          "type": "string"
        }
      ],
      "name": "setContractURI",
      "outputs": [],
      "stateMutability": "nonpayable",
      "type": "function"
    },
    {
      "inputs": [
        {
          "internalType": "address",
          "name": "_receiver",
          "type": "address"
        },
        {
          "internalType": "uint96",
          "name": "_feeNumerator",
          "type": "uint96"
        }
      ],
      "name": "setDefaultRoyalty",
      "outputs": [],
      "stateMutability": "nonpayable",
      "type": "function"
    },
    {
      "inputs": [
        {
          "internalType": "bool",
          "name": "_newLocked",
          "type": "bool"
        }
      ],
      "name": "setLocked",
      "outputs": [],
      "stateMutability": "nonpayable",
      "type": "function"
    },
    {
      "inputs": [
        {
          "internalType": "uint256",
          "name": "_newMaxSupply",
          "type": "uint256"
        }
      ],
      "name": "setMaxSupply",
      "outputs": [],
      "stateMutability": "nonpayable",
      "type": "function"
    },
    {
      "inputs": [
        {
          "internalType": "uint256",
          "name": "_newMintLimit",
          "type": "uint256"
        }
      ],
      "name": "setMintLimit",
      "outputs": [],
      "stateMutability": "nonpayable",
      "type": "function"
    },
    {
      "inputs": [
        {
          "internalType": "bool",
          "name": "_newPaused",
          "type": "bool"
        }
      ],
      "name": "setPaused",
      "outputs": [],
      "stateMutability": "nonpayable",
      "type": "function"
    },
    {
      "inputs": [
        {
          "internalType": "bytes4",
          "name": "interfaceId",
          "type": "bytes4"
        }
      ],
      "name": "supportsInterface",
      "outputs": [
        {
          "internalType": "bool",
          "name": "",
          "type": "bool"
        }
      ],
      "stateMutability": "view",
      "type": "function"
    },
    {
      "inputs": [],
      "name": "symbol",
      "outputs": [
        {
          "internalType": "string",
          "name": "",
          "type": "string"
        }
      ],
      "stateMutability": "view",
      "type": "function"
    },
    {
      "inputs": [
        {
          "internalType": "uint256",
          "name": "tokenId",
          "type": "uint256"
        }
      ],
      "name": "tokenURI",
      "outputs": [
        {
          "internalType": "string",
          "name": "",
          "type": "string"
        }
      ],
      "stateMutability": "view",
      "type": "function"
    },
    {
      "inputs": [],
      "name": "totalSupply",
      "outputs": [
        {
          "internalType": "uint256",
          "name": "result",
          "type": "uint256"
        }
      ],
      "stateMutability": "view",
      "type": "function"
    },
    {
      "inputs": [
        {
          "internalType": "address",
          "name": "from",
          "type": "address"
        },
        {
          "internalType": "address",
          "name": "to",
          "type": "address"
        },
        {
          "internalType": "uint256",
          "name": "tokenId",
          "type": "uint256"
        }
      ],
      "name": "transferFrom",
      "outputs": [],
      "stateMutability": "payable",
      "type": "function"
    },
    {
      "inputs": [
        {
          "internalType": "address",
          "name": "newOwner",
          "type": "address"
        }
      ],
      "name": "transferOwnership",
      "outputs": [],
      "stateMutability": "nonpayable",
      "type": "function"
    },
    {
      "inputs": [],
      "name": "withdraw",
      "outputs": [],
      "stateMutability": "nonpayable",
      "type": "function"
    }
  ],
  "bytecode": "0x60806040523480156200001157600080fd5b5060405162002587380380620025878339810160408190526200003491620003db565b3383836002620000458382620004dd565b506003620000548282620004dd565b50600160005550506001600160a01b0381166200008c57604051631e4fbdf760e01b8152600060048201526024015b60405180910390fd5b62000097816200016a565b5060108190556011805461ffff19169055604080516020810190915260008152600d90620000c69082620004dd565b50604080516020810190915260008152600e90620000e59082620004dd565b50604080518082019091526005815264173539b7b760d91b6020820152600f90620001119082620004dd565b5060006012819055620001259033620001bc565b50620001527f9f2df0fed2c77648de5860a4cc508cd0818c85b8b8a1ab4ceeef8d981c8956a633620001bc565b5062000161336103e86200026f565b505050620005a9565b600c80546001600160a01b038381166001600160a01b0319831681179093556040519116919082907f8be0079c531659141344cd1fd0a4f28419497f9722a3daafe3b4186f6b6457e090600090a35050565b6000828152600b602090815260408083206001600160a01b038516845290915281205460ff1662000265576000838152600b602090815260408083206001600160a01b03861684529091529020805460ff191660011790556200021c3390565b6001600160a01b0316826001600160a01b0316847f2f8788117e7eff1d82e926ec794901d17c78024a50270940304540a733656f0d60405160405180910390a450600162000269565b5060005b92915050565b6127106001600160601b038216811015620002b057604051636f483d0960e01b81526001600160601b03831660048201526024810182905260440162000083565b6001600160a01b038316620002dc57604051635b6cc80560e11b81526000600482015260240162000083565b50604080518082019091526001600160a01b039092168083526001600160601b039091166020909201829052600160a01b90910217600955565b634e487b7160e01b600052604160045260246000fd5b600082601f8301126200033e57600080fd5b81516001600160401b03808211156200035b576200035b62000316565b604051601f8301601f19908116603f0116810190828211818310171562000386576200038662000316565b81604052838152602092508683858801011115620003a357600080fd5b600091505b83821015620003c75785820183015181830184015290820190620003a8565b600093810190920192909252949350505050565b600080600060608486031215620003f157600080fd5b83516001600160401b03808211156200040957600080fd5b62000417878388016200032c565b945060208601519150808211156200042e57600080fd5b506200043d868287016200032c565b925050604084015190509250925092565b600181811c908216806200046357607f821691505b6020821081036200048457634e487b7160e01b600052602260045260246000fd5b50919050565b601f821115620004d857600081815260208120601f850160051c81016020861015620004b35750805b601f850160051c820191505b81811015620004d457828155600101620004bf565b5050505b505050565b81516001600160401b03811115620004f957620004f962000316565b62000511816200050a84546200044e565b846200048a565b602080601f831160018114620005495760008415620005305750858301515b600019600386901b1c1916600185901b178555620004d4565b600085815260208120601f198616915b828110156200057a5788860151825594840194600190910190840162000559565b5085821015620005995787850151600019600388901b60f8161c191681555b5050505050600190811b01905550565b611fce80620005b96000396000f3fe60806040526004361061025c5760003560e01c806370a0823111610144578063b88d4fde116100b6578063d547741f1161007a578063d547741f146106ed578063d5abeb011461070d578063da3ef23f14610723578063e8a3d48514610743578063e985e9c514610758578063f2fde38b146107a157600080fd5b8063b88d4fde14610657578063c66828621461066a578063c87b56dd1461067f578063cf3090121461069f578063d5391393146106b957600080fd5b8063938e3d7b11610108578063938e3d7b146105b757806395d89b41146105d7578063996517cf146105ec5780639e6a1d7d14610602578063a217fddf14610622578063a22cb4651461063757600080fd5b806370a082311461052f578063715018a61461054f57806380f2152e146105645780638da5cb5b1461057957806391d148541461059757600080fd5b80632a55205a116101dd57806342842e0e116101a157806342842e0e1461048857806355f804b31461049b5780635c975abb146104bb5780636352211e146104da5780636c0360eb146104fa5780636f8b44b01461050f57600080fd5b80632a55205a146103d45780632f2ff15d1461041357806336568abe146104335780633ccfd60b1461045357806340c10f191461046857600080fd5b806316c38b3c1161022457806316c38b3c1461032557806318160ddd14610345578063211e28b61461037157806323b872dd14610391578063248a9ca3146103a457600080fd5b806301ffc9a71461026157806304634d8d1461029657806306fdde03146102b8578063081812fc146102da578063095ea7b314610312575b600080fd5b34801561026d57600080fd5b5061028161027c366004611922565b6107c1565b60405190151581526020015b60405180910390f35b3480156102a257600080fd5b506102b66102b136600461195d565b6107f0565b005b3480156102c457600080fd5b506102cd61080a565b60405161028d91906119f0565b3480156102e657600080fd5b506102fa6102f5366004611a03565b61089c565b6040516001600160a01b03909116815260200161028d565b6102b6610320366004611a1c565b6108d7565b34801561033157600080fd5b506102b6610340366004611a56565b6108e7565b34801561035157600080fd5b50610363600154600054036000190190565b60405190815260200161028d565b34801561037d57600080fd5b506102b661038c366004611a56565b61090d565b6102b661039f366004611a71565b61092c565b3480156103b057600080fd5b506103636103bf366004611a03565b6000908152600b602052604090206001015490565b3480156103e057600080fd5b506103f46103ef366004611aad565b610a9e565b604080516001600160a01b03909316835260208301919091520161028d565b34801561041f57600080fd5b506102b661042e366004611acf565b610b4a565b34801561043f57600080fd5b506102b661044e366004611acf565b610b75565b34801561045f57600080fd5b506102b6610ba8565b34801561047457600080fd5b506102b6610483366004611a1c565b610bdf565b6102b6610496366004611a71565b610d1c565b3480156104a757600080fd5b506102b66104b6366004611b87565b610d37565b3480156104c757600080fd5b5060115461028190610100900460ff1681565b3480156104e657600080fd5b506102fa6104f5366004611a03565b610d4e565b34801561050657600080fd5b506102cd610d59565b34801561051b57600080fd5b506102b661052a366004611a03565b610de7565b34801561053b57600080fd5b5061036361054a366004611bd0565b610df8565b34801561055b57600080fd5b506102b6610e3e565b34801561057057600080fd5b506102cd610e52565b34801561058557600080fd5b50600c546001600160a01b03166102fa565b3480156105a357600080fd5b506102816105b2366004611acf565b610e5f565b3480156105c357600080fd5b506102b66105d2366004611b87565b610e8a565b3480156105e357600080fd5b506102cd610ea1565b3480156105f857600080fd5b5061036360125481565b34801561060e57600080fd5b506102b661061d366004611a03565b610eb0565b34801561062e57600080fd5b50610363600081565b34801561064357600080fd5b506102b6610652366004611beb565b610ec1565b6102b6610665366004611c15565b610f2d565b34801561067657600080fd5b506102cd610f68565b34801561068b57600080fd5b506102cd61069a366004611a03565b610f75565b3480156106ab57600080fd5b506011546102819060ff1681565b3480156106c557600080fd5b506103637f9f2df0fed2c77648de5860a4cc508cd0818c85b8b8a1ab4ceeef8d981c8956a681565b3480156106f957600080fd5b506102b6610708366004611acf565b61103e565b34801561071957600080fd5b5061036360105481565b34801561072f57600080fd5b506102b661073e366004611b87565b611063565b34801561074f57600080fd5b506102cd61107a565b34801561076457600080fd5b50610281610773366004611c91565b6001600160a01b03918216600090815260076020908152604080832093909416825291909152205460ff1690565b3480156107ad57600080fd5b506102b66107bc366004611bd0565b611089565b60006107cc826110c7565b806107db57506107db82611115565b806107ea57506107ea8261114a565b92915050565b60006107fb8161116f565b6108058383611179565b505050565b60606002805461081990611cbb565b80601f016020809104026020016040519081016040528092919081815260200182805461084590611cbb565b80156108925780601f1061086757610100808354040283529160200191610892565b820191906000526020600020905b81548152906001019060200180831161087557829003601f168201915b5050505050905090565b60006108a78261121c565b6108bb576108bb6333d1c03960e21b61126a565b506000908152600660205260409020546001600160a01b031690565b6108e382826001611274565b5050565b60006108f28161116f565b50601180549115156101000261ff0019909216919091179055565b60006109188161116f565b506011805460ff1916911515919091179055565b600061093782611317565b6001600160a01b03948516949091508116841461095d5761095d62a1148160e81b61126a565b60008281526006602052604090208054338082146001600160a01b038816909114176109a15761098d8633610773565b6109a1576109a1632ce44b5f60e11b61126a565b6109ae86868660016113b8565b80156109b957600082555b6001600160a01b038681166000908152600560205260408082208054600019019055918716808252919020805460010190554260a01b17600160e11b17600085815260046020526040812091909155600160e11b84169003610a4b57600184016000818152600460205260408120549003610a49576000548114610a495760008181526004602052604090208490555b505b6001600160a01b0385168481887fddf252ad1be2c89b69c2b068fc378daa952ba7f163c4a11628f55a4df523b3ef600080a480600003610a9557610a95633a954ecd60e21b61126a565b50505050505050565b6000828152600a602090815260408083208151808301909252546001600160a01b038116808352600160a01b9091046001600160601b0316928201929092528291610b135750604080518082019091526009546001600160a01b0381168252600160a01b90046001600160601b031660208201525b602081015160009061271090610b32906001600160601b031687611d0b565b610b3c9190611d38565b915196919550909350505050565b6000828152600b6020526040902060010154610b658161116f565b610b6f8383611439565b50505050565b6001600160a01b0381163314610b9e5760405163334bd91960e11b815260040160405180910390fd5b61080582826114cd565b6000610bb38161116f565b60405133904780156108fc02916000818181858888f193505050501580156108e3573d6000803e3d6000fd5b7f9f2df0fed2c77648de5860a4cc508cd0818c85b8b8a1ab4ceeef8d981c8956a6610c098161116f565b601154610100900460ff1615610c4f5760405162461bcd60e51b815260206004820152600660248201526514185d5cd95960d21b60448201526064015b60405180910390fd5b60105415610cb15760105482610c6c600154600054036000190190565b610c769190611d4c565b1115610cb15760405162461bcd60e51b815260206004820152600a6024820152694d617820537570706c7960b01b6044820152606401610c46565b60125415610d1257601254610cc584610df8565b10610d125760405162461bcd60e51b815260206004820152601760248201527f414c5245414459204d494e544544204d4158204e4654530000000000000000006044820152606401610c46565b610805838361153a565b61080583838360405180602001604052806000815250610f2d565b6000610d428161116f565b600e6108058382611dad565b60006107ea82611317565b600e8054610d6690611cbb565b80601f0160208091040260200160405190810160405280929190818152602001828054610d9290611cbb565b8015610ddf5780601f10610db457610100808354040283529160200191610ddf565b820191906000526020600020905b815481529060010190602001808311610dc257829003601f168201915b505050505081565b6000610df28161116f565b50601055565b60006001600160a01b038216610e1857610e186323d3ad8160e21b61126a565b506001600160a01b031660009081526005602052604090205467ffffffffffffffff1690565b610e46611606565b610e506000611633565b565b600d8054610d6690611cbb565b6000918252600b602090815260408084206001600160a01b0393909316845291905290205460ff1690565b6000610e958161116f565b600d6108058382611dad565b60606003805461081990611cbb565b6000610ebb8161116f565b50601255565b3360008181526007602090815260408083206001600160a01b03871680855290835292819020805460ff191686151590811790915590519081529192917f17307eab39ab6107e8899845ad3d59bd9653f200f220920489ca2b5937696c31910160405180910390a35050565b610f3884848461092c565b6001600160a01b0383163b15610b6f57610f5484848484611685565b610b6f57610b6f6368d2bf6b60e11b61126a565b600f8054610d6690611cbb565b6060610f808261121c565b610fbe5760405162461bcd60e51b815260206004820152600f60248201526e2737b71022bc34b9ba103a37b5b2b760891b6044820152606401610c46565b6000600e8054610fcd90611cbb565b905011610fe957604051806020016040528060008152506107ea565b600e611015610ff9600585611e6d565b1561100e57611009600585611e6d565b611768565b6005611768565b600f60405160200161102993929190611ef4565b60405160208183030381529060405292915050565b6000828152600b60205260409020600101546110598161116f565b610b6f83836114cd565b600061106e8161116f565b600f6108058382611dad565b6060600d805461081990611cbb565b611091611606565b6001600160a01b0381166110bb57604051631e4fbdf760e01b815260006004820152602401610c46565b6110c481611633565b50565b60006301ffc9a760e01b6001600160e01b0319831614806110f857506380ac58cd60e01b6001600160e01b03198316145b806107ea5750506001600160e01b031916635b5e139f60e01b1490565b60006001600160e01b0319821663152a902d60e11b14806107ea57506301ffc9a760e01b6001600160e01b03198316146107ea565b60006001600160e01b03198216637965db0b60e01b14806107ea57506107ea82611115565b6110c481336117fb565b6127106001600160601b0382168110156111b857604051636f483d0960e01b81526001600160601b038316600482015260248101829052604401610c46565b6001600160a01b0383166111e257604051635b6cc80560e11b815260006004820152602401610c46565b50604080518082019091526001600160a01b039092168083526001600160601b039091166020909201829052600160a01b90910217600955565b600081600111611265576000548210156112655760005b506000828152600460205260408120549081900361125b5761125483611f27565b9250611233565b600160e01b161590505b919050565b8060005260046000fd5b600061127f83610d4e565b90508180156112975750336001600160a01b03821614155b156112ba576112a68133610773565b6112ba576112ba6367d9dca160e11b61126a565b60008381526006602052604080822080546001600160a01b0319166001600160a01b0388811691821790925591518693918516917f8c5be1e5ebec7d5bd14f71427d1e84f3dd0314c0f7b2291e5b200ac8c7c3b92591a450505050565b6000816001116113a857506000818152600460205260409020548060000361139557600054821061135257611352636f96cda160e11b61126a565b5b5060001901600081815260046020526040902054801561135357600160e01b811660000361138057919050565b611390636f96cda160e11b61126a565b611353565b600160e01b81166000036113a857919050565b611265636f96cda160e11b61126a565b60115460ff1615610b6f576001600160a01b03841615610b6f5760405162461bcd60e51b815260206004820152603660248201527f426173654552433732313a205472616e7366657273206172652064697361626c6044820152756564207768656e204c6f636b6564206973207472756560501b6064820152608401610c46565b60006114458383610e5f565b6114c5576000838152600b602090815260408083206001600160a01b03861684529091529020805460ff1916600117905561147d3390565b6001600160a01b0316826001600160a01b0316847f2f8788117e7eff1d82e926ec794901d17c78024a50270940304540a733656f0d60405160405180910390a45060016107ea565b5060006107ea565b60006114d98383610e5f565b156114c5576000838152600b602090815260408083206001600160a01b0386168085529252808320805460ff1916905551339286917ff6391f5c32d9c69d2a47ea670b442974b53935d1edc7fd64eb21e047a839171b9190a45060016107ea565b60008054908290036115565761155663b562e8dd60e01b61126a565b61156360008483856113b8565b60008181526004602090815260408083206001600160a01b0387164260a01b6001881460e11b178117909155808452600590925282208054680100000000000000018602019055908190036115c1576115c1622e076360e81b61126a565b818301825b808360007fddf252ad1be2c89b69c2b068fc378daa952ba7f163c4a11628f55a4df523b3ef600080a48181600101915081036115c6575060005550505050565b600c546001600160a01b03163314610e505760405163118cdaa760e01b8152336004820152602401610c46565b600c80546001600160a01b038381166001600160a01b0319831681179093556040519116919082907f8be0079c531659141344cd1fd0a4f28419497f9722a3daafe3b4186f6b6457e090600090a35050565b604051630a85bd0160e11b81526000906001600160a01b0385169063150b7a02906116ba903390899088908890600401611f3e565b6020604051808303816000875af19250505080156116f5575060408051601f3d908101601f191682019092526116f291810190611f7b565b60015b61174a573d808015611723576040519150601f19603f3d011682016040523d82523d6000602084013e611728565b606091505b508051600003611742576117426368d2bf6b60e11b61126a565b805181602001fd5b6001600160e01b031916630a85bd0160e11b1490505b949350505050565b6060600061177583611834565b600101905060008167ffffffffffffffff81111561179557611795611afb565b6040519080825280601f01601f1916602001820160405280156117bf576020820181803683370190505b5090508181016020015b600019016f181899199a1a9b1b9c1cb0b131b232b360811b600a86061a8153600a85049450846117c957509392505050565b6118058282610e5f565b6108e35760405163e2517d3f60e01b81526001600160a01b038216600482015260248101839052604401610c46565b60008072184f03e93ff9f4daa797ed6e38ed64bf6a1f0160401b83106118735772184f03e93ff9f4daa797ed6e38ed64bf6a1f0160401b830492506040015b6d04ee2d6d415b85acef8100000000831061189f576d04ee2d6d415b85acef8100000000830492506020015b662386f26fc1000083106118bd57662386f26fc10000830492506010015b6305f5e10083106118d5576305f5e100830492506008015b61271083106118e957612710830492506004015b606483106118fb576064830492506002015b600a83106107ea5760010192915050565b6001600160e01b0319811681146110c457600080fd5b60006020828403121561193457600080fd5b813561193f8161190c565b9392505050565b80356001600160a01b038116811461126557600080fd5b6000806040838503121561197057600080fd5b61197983611946565b915060208301356001600160601b038116811461199557600080fd5b809150509250929050565b60005b838110156119bb5781810151838201526020016119a3565b50506000910152565b600081518084526119dc8160208601602086016119a0565b601f01601f19169290920160200192915050565b60208152600061193f60208301846119c4565b600060208284031215611a1557600080fd5b5035919050565b60008060408385031215611a2f57600080fd5b611a3883611946565b946020939093013593505050565b8035801515811461126557600080fd5b600060208284031215611a6857600080fd5b61193f82611a46565b600080600060608486031215611a8657600080fd5b611a8f84611946565b9250611a9d60208501611946565b9150604084013590509250925092565b60008060408385031215611ac057600080fd5b50508035926020909101359150565b60008060408385031215611ae257600080fd5b82359150611af260208401611946565b90509250929050565b634e487b7160e01b600052604160045260246000fd5b600067ffffffffffffffff80841115611b2c57611b2c611afb565b604051601f8501601f19908116603f01168101908282118183101715611b5457611b54611afb565b81604052809350858152868686011115611b6d57600080fd5b858560208301376000602087830101525050509392505050565b600060208284031215611b9957600080fd5b813567ffffffffffffffff811115611bb057600080fd5b8201601f81018413611bc157600080fd5b61176084823560208401611b11565b600060208284031215611be257600080fd5b61193f82611946565b60008060408385031215611bfe57600080fd5b611c0783611946565b9150611af260208401611a46565b60008060008060808587031215611c2b57600080fd5b611c3485611946565b9350611c4260208601611946565b925060408501359150606085013567ffffffffffffffff811115611c6557600080fd5b8501601f81018713611c7657600080fd5b611c8587823560208401611b11565b91505092959194509250565b60008060408385031215611ca457600080fd5b611cad83611946565b9150611af260208401611946565b600181811c90821680611ccf57607f821691505b602082108103611cef57634e487b7160e01b600052602260045260246000fd5b50919050565b634e487b7160e01b600052601160045260246000fd5b80820281158282048414176107ea576107ea611cf5565b634e487b7160e01b600052601260045260246000fd5b600082611d4757611d47611d22565b500490565b808201808211156107ea576107ea611cf5565b601f82111561080557600081815260208120601f850160051c81016020861015611d865750805b601f850160051c820191505b81811015611da557828155600101611d92565b505050505050565b815167ffffffffffffffff811115611dc757611dc7611afb565b611ddb81611dd58454611cbb565b84611d5f565b602080601f831160018114611e105760008415611df85750858301515b600019600386901b1c1916600185901b178555611da5565b600085815260208120601f198616915b82811015611e3f57888601518255948401946001909101908401611e20565b5085821015611e5d5787850151600019600388901b60f8161c191681555b5050505050600190811b01905550565b600082611e7c57611e7c611d22565b500690565b60008154611e8e81611cbb565b60018281168015611ea65760018114611ebb57611eea565b60ff1984168752821515830287019450611eea565b8560005260208060002060005b85811015611ee15781548a820152908401908201611ec8565b50505082870194505b5050505092915050565b6000611f008286611e81565b8451611f108183602089016119a0565b611f1c81830186611e81565b979650505050505050565b600081611f3657611f36611cf5565b506000190190565b6001600160a01b0385811682528416602082015260408101839052608060608201819052600090611f71908301846119c4565b9695505050505050565b600060208284031215611f8d57600080fd5b815161193f8161190c56fea26469706673582212206b2835c8895907f03e401869afd94129f8cf057bc375dfb69675b1ec8636ac0864736f6c63430008140033",
  "linkReferences": {},
  "deployedLinkReferences": {}
}